:020000021000EC
:108000000040002099810100D9810100DB8101003D
:108010000000000000000000000000000000000060
:10802000000000000000000000000000DD810100F1
:108030000000000000000000DF810100E18101007C
:10804000E5810100E7810100E9810100EB81010088
:10805000ED81010000000000EF810100F1810100CD
:10806000F3810100F5810100F7810100F981010030
:10807000FB810100FD810100FF81010001820100FF
:10808000038201008D8B01000782010000000000C7
:10809000298C01000B820100198401000F8201006C
:1080A00011820100138201000000000000000000A6
:1080B00000000000000000000000000000000000C0
:1080C00010B5064C2378002B07D1054B002B02D0AE
:1080D000044800E000BF0123237010BD6C2800207D
:1080E00000000000C8A8010008B5084B002B03D011
:1080F0000748084900E000BF07480368002B00D18B
:1081000008BD064B002BFBD09847F9E700000000A4
:10811000C8A8010070280020682800200000000086
:10812000164B002B00D1144B9D46402292029A1A06
:10813000924600218B460F461348144A121A02F049
:108140006DF80F4B002B00D098470E4B002B00D042
:1081500098470020002104000D000D48002802D09F
:108160000C4802F07BF901F045FD2000290000F0E9
:108170009FF801F02FFDC0460000080000400020DD
:1081800000000000000000006C280020AC29002046
:108190005DA401006DA401000948026803210A439F
:1081A00002600849084A094B9B1A05DD002408595A
:1081B000105104349C42FADB0548804705480047CB
:1081C00024050040D4A801000020002068280020D9
:1081D0002582010021810100FEE7FEE7FEE7FEE7C0
:1081E000FEE7FEE7FEE7FEE7FEE7FEE7FEE7FEE767
:1081F000FEE7FEE7FEE7FEE7FEE7FEE7FEE7FEE757
:10820000FEE7FEE7FEE7FEE7FEE7FEE7FEE7FEE746
:10821000FEE7FEE7014A024B1A6070470024F400B3
:10822000042000201B4A10B51378111C012B19D112
:10823000194B1B681B0715D1184BE0241A68F02353
:10824000101C184022420BD1154A12681A4209D15B
:10825000144A154B1A608022144B12021A6001E076
:108260003028F1D00B68DBB2012B12D10A4A126818
:1082700012070ED1F021094A12680A40402A08D19B
:10828000074A12680A4204D1C1228021D200C905DE
:108290008B5010BDE00F00F0E40F00F0E80F00F08D
:1082A000EC0F00F0DFFF07C004050040186C004031
:1082B00038B5182001F0C2FC051C142001F0BEFCEA
:1082C000041C122001F0C2F8074801F08DFB01F0F8
:1082D00033FC122001F0C9F8281C211C01F01EF902
:1082E00001F074FBFCE7C046082000202EDF704739
:1082F00051DF704710DF704711DF704761DF704753
:1083000008B5081C111C01F0F1F908BDF0B5234EA9
:1083100085B03378002B3ED07568B4686B425D4100
:1083200063425C41EDB2E4B2002D32D103A8FFF705
:10833000DFFF05280AD0002804D0291C2A1C01F0E0
:10834000CCF904E003987368984700E00125002CFD
:108350001CD1B38903A90B8033690124181C019334
:10836000FFF7CCFF071E052F0BD0002805D00021FA
:108370000A1C01F0B2F9002403E00198B3689847A1
:108380003C1C002DD0D0002CCED004E0002D02D11A
:10839000CAE7002CDDD005B0F0BDC046882800201B
:1083A00038B5051C0720002910D08C070ED1084CC9
:1083B000281C21610749A2816361FFF79BFF002808
:1083C00004D1012316302370FFF790FF38BDC0465B
:1083D000882800200183010008B5FFF78DFF031CEA
:1083E0005A1E9341014ADBB2137008BD8828002051
:1083F0000E23002802D0024B98600023181C7047FF
:10840000882800200E23002802D0024B5860002349
:10841000181C70478828002008B5074B5B69002BA3
:1084200007D09847002806D000210A1C01F055F912
:1084300001E0FFF76BFF08BD8828002072DF70475E
:1084400079DF70477DDF704765DF7047F0B5002446
:10845000061C251C87B00C9F00933B780391029269
:10846000019333889D423ADA7368A90059180422AF
:1084700005A801F095FE04AB05A8D91C0022FFF762
:10848000E3FF002835D104ABDB78029A934222D176
:108490006242624102993B78520059188A181F2A99
:1084A0001BDC002C07D169469A1C3A700133009AF4
:1084B000097BDBB2D15404ABDC1C3A78009B05A8E5
:1084C0009A18211CFFF7C0FF002812D1237801243D
:1084D0003A78D3183B700135C3E70C2009E000203F
:1084E000844206D03B78019A013B9B1A0199009A7D
:1084F000535407B0F0BDF7B5089E171C0096022232
:10850000051C1C1CFFF7A2FF002806D10096281CA2
:10851000391C1022231CFFF799FFFEBD0023F0B584
:108520001370037889B0061C0D1C141C002B03D19A
:10853000B378002B4BD029E043780C201D2B00DDB5
:1085400050E10E2704ABFF181D23881C391C3B800B
:10855000FFF778FF002800D044E13378022B03D1E5
:108560003B8809221D2B08D97378002B03D09BB2BE
:1085700008221D2B01D908223B88DBB2591C297027
:108580006A70227802329B182370D1E723780C207E
:108590001B2B00DD26E10E2704ABFF18381CFFF76C
:1085A0004FFF002800D01DE123785A1C22700322BF
:1085B000EA5423785A1C22701922EA5423783A8804
:1085C000EB181A70120A5A70237802332370F3786A
:1085D000002B0ED023785A1C22700222EA542378F2
:1085E0005A1C22700122EA5423789A182270F278D9
:1085F000EA547368002B12D01A7823780C201C2BB5
:1086000000DDEFE0591C21700221E9542378591C48
:1086100021700A21E9542378591C2170EA543389C6
:10862000002B03D1338A002B16D00AE0301C0094B3
:108630000830022106222B1CFFF75DFF0028F1D035
:10864000D0E0301C00941030032107222B1CFFF7D0
:1086500052FF002800D0C5E0338B002B0AD0301C1D
:1086600000941830142115222B1CFFF744FF00281A
:1086700000D0B7E0336A002B49D022780C20049256
:1086800006321F2A00D9ADE019880538052900D81F
:10869000A8E0554A554F8A1892B2BA4200D8A1E0D4
:1086A0005A880392052A00D89CE04F4FBC46944458
:1086B000674602AA97819789BC464C4FBC4500D8B3
:1086C00090E04B4FB94205D0039ABA4202D0914292
:1086D00000D987E0049A04990132227005226A5475
:1086E0002278511C21701221A95422781988AA18C5
:1086F0001170090A517022780232D2B22270598860
:10870000AB181970090A5970237802332370776AFD
:10871000002F29D03A792178931C881CDBB2C3182A
:108720000C201F2B5EDC4B1C033223706A54237811
:108730005A1C2270FF22EA5423783A88EB181A70E8
:10874000120A5A7023780233DBB22370BA88002AE7
:108750000AD0B9680538002944D0E81801F020FD96
:10876000BA882378D3182370331C2C3305931B78D5
:10877000002B01D1002035E0B36A002B31D000235B
:108780000493059B049A1B789342F3D90C27049B0E
:1087900022785F43B36A511CDF193B7921700333A0
:1087A000AB5423785A1C22701622EA5423783A8854
:1087B000EB181A70120A5A7020780230C0B220707A
:1087C000BA88002A09D0B96800290AD0281801F00F
:1087D000E7FCBA882378D3182370049B0133DBB2FB
:1087E000CEE7072009B0F0BD7FF3FFFF7DF3000067
:1087F000FFFF0000F0B593B06B466A469E1D002354
:10880000D71D0D1C33703B70984204D0C3785B07B2
:108810000FD407201DE0041C002D03D0EB78002BA3
:10882000F7D10EE02A1C31783B78201CFFF706FEBA
:108830000FE002A9321CFFF771FE02AC0028EBD05A
:1088400007E03A1C281C0AA9FFF768FE0AAA0028BC
:10885000E9D013B0F0BDC04675DF704776DF7047D2
:108860007ADF70477BDF704737B5164C164B208890
:10887000251C984225D0A378227C0133DBB2A3705B
:108880009A4209D3211C2031FFF7E6FF002818D0B7
:10889000E369002B14D114E00023A370237D002B87
:1088A00008D03B21FFF7DAFF002803D0E369002B53
:1088B00000D09847AB69002B03D0002201A80270BA
:1088C000984737BDA0280020FFFF000013B5174CC4
:1088D000638D228C9A420DD8628C9A420AD3A36986
:1088E000002B03D0012201A80270984700233434E2
:1088F000237013BD231C34331B78002B05D0A369D0
:10890000002BF3D001A80022EEE7A378002B01D1C1
:10891000A16800E0E168206B002200F0F5FB002870
:10892000E4D0E369002BE0D1E0E7C046A0280020B6
:10893000021C70B5144C231D62CA62C362CA62C3B2
:108940001268251C1A60231C00220168343320356C
:108950001A70281C914212D0083201F021FC281C08
:10896000FFF77EFF00280DD1201C012300215B4270
:10897000064A30302380A17000F0A0FB02E0FFF730
:1089800071FFEFE770BDC046A02800206988010094
:1089900008B5024B186B00F0FFFB08BDA0280020B3
:1089A00010B50388112B18D002D8102B05D039E050
:1089B000122B2FD0502B17D034E01B4C8388011C76
:1089C000201C163128300822238001F0E9FB002307
:1089D000A370638A002B25D122E00123124C5B4255
:1089E00023800023A3700BE00F4CC188628A914260
:1089F00018D1C38B022B15D10130C37FDB070FD4F5
:108A0000206B00F0C9FB00280CD0E369002B09D0D3
:108A1000984707E0811D04480822283001F0C0FB78
:108A2000FFF754FF10BDC046A028002073B5154CB9
:108A3000011C251C2035281C082201F0B1FB281C34
:108A4000FFF70EFF251C061E19D1638D228C9A425A
:108A500002D8628C9A420BD22B1C291C012434337D
:108A6000288820311C70FFF7F7FEAC70061C06E06A
:108A7000A369002B03D0012201A802709847301C83
:108A800076BDC046A028002010B543788278013317
:108A90009A1A041C501E8241524213402278002030
:108AA000934205D00B601823607843436068C01878
:108AB00010BD164B02205968C905C90D24D01039C4
:108AC000CBB25AB2002A0BDA0F221A40083AC2403F
:108AD00082400F49521803210B4052688B4007E037
:108AE00092080C4BC0329200D25803230B40DB009B
:108AF000DA40D3B29B09DBB20020012B04D0033B48
:108B00005A425A410230801A7047C04600ED00E0D8
:108B100018ED00E000E100E08022194B9202DA67D4
:108B2000D2218022174B520289005A5040395A50A4
:108B300001222F215A60081C0138C046C046C04699
:108B4000C046C046C046C046C046C046C046C046F5
:108B5000C046F1D19A6000220B4B081C1A60013804
:108B6000C046C046C046C046C046C046C046C046D5
:108B7000C046C046C046C046F1D11A717047C046D3
:108B800004E100E000100140D8280020F8B50025DD
:108B9000204B214C5D649D64DD641D655D609D60BE
:108BA000A7687B1C34D01D4B1D4AD6582368F61A83
:108BB0003602360A24235F43E368DB195A6896427B
:108BC00014D3B61AAD1822691F6A002A09D0986911
:108BD000D9699047002807D000210A1C00F07DFDCC
:108BE00002E09A69D86990477B1CE3D1227D637DBE
:108BF000934205D10133DBB2022B00D10023637510
:108C00008022637D52039B00E418064BA5615A60E5
:108C1000F8BDC046FC100140D82800200405000023
:108C200000100140FCE100E0F0B5BD4B8BB01A68CC
:108C3000597D03921A7D914211D00132D2B2022A9B
:108C400000D100221A751A7D92009A189769039A2A
:108C5000BA181202120A1A600122059201E00027D6
:108C600005979A6806925A1CD27F01925A6A099215
:108C7000DA6800921A6828331B780892019A0493E4
:108C8000069B0292029A013AD2B20292FF2A68D05F
:108C9000029AD500099A551929786A788A42F1D042
:108CA00018224A43AC7801316868C9B2641A821844
:108CB000601E8441107864422140022803D01A1CAF
:108CC00003284CD141E02420526850439446009A36
:108CD0008018027D0792079C1A1C002C3FD01E1C96
:108CE0001C1C721C08D0664508D024227243009CCC
:108CF0001219341C166AF4E71A1C23E01A1CB44239
:108D00000DD124225343009A9B181A6A531C06D192
:108D10000126844B9E60079B0493002308934368BD
:108D2000066A9C4624235C43009BE4182662741C5C
:108D300008D024237343009C1B195E686446B44624
:108D400064445C600023037509E0531C07D02423AE
:108D50005A43009BD21800231375126AF5E7131CBF
:108D60009BE76F4A6846111C007C283108700899FF
:108D7000936011600599002909D1069A9B1A5A1E21
:108D80009341DBB2029301235B429C462AE0D56803
:108D900001225242944600205A1C1FD024225A43DA
:108DA000AA1851688F4205D25D48C91B8360516083
:108DB000012316E07F1A40180021146951601175D3
:108DC000166A8C4208D00399D46041180902090A36
:108DD000916061469C461162331CDDE7504A936006
:108DE000023302934E4B9A6803925A6A0692DA68EB
:108DF00000921A6828331B7805920793039B019A07
:108E0000013AD2B20192FF2A00D18FE0019A06996D
:108E1000D2008A186146013108D0604624214143BE
:108E2000009864464118086A844628E01178507812
:108E30008842E4D0182048435468013120189478BF
:108E4000C9B211708C4201D10021117001784468BF
:108E50001D1C012961D123316143009D69180E7DDC
:108E60001D1C002E59D185688D60C568CD600569CF
:108E70000D614069C8610798002800D08E6088683D
:108E8000059D294F451B2D022D0ACE68BD4202D8F3
:108E9000AD194D600AE0059D281A0002000A8642BD
:108EA00002D9361A4E6001E0002048600020886038
:108EB000C86001300875023808622530061C664318
:108EC0000099251C8E19591C27D05843009D7168A4
:108ED00028184568A94204D8691A4160251C3362E4
:108EE0001BE01D1C049324206843009F381847682A
:108EF000B94206D9006AC91B0495471C05D0051C58
:108F0000F1E77F1A4760281C049D716024214D43BE
:108F1000009930624D192C621D1C2B1C7AE7C0464B
:108F2000D828002000100140FEFF7F002E4C039A3D
:108F3000A360934202D1029A002A4FD05A1C4BD010
:108F400024225343E26829482949D3180D585E6802
:108F500023682779EA1A1202120A0332009201905A
:108F6000002F1FD18020D1274002BF00C851403FB1
:108F7000C851C02280271F48BF0252008750076097
:108F800001272F200F600138C046C046C046C046AA
:108F9000C046C046C046C046C046C046C046C046A1
:108FA000F1D12771009AB24200D2321CD318A82204
:108FB0001B021B0AD2008B50019A8958491B0902D7
:108FC000090A5D1B2D0203312D0AA94206D9802210
:108FD000094B92025A6001E0FFF79EFD0022024B0E
:108FE00028331A700BB0F0BDD8280020040500000B
:108FF0000010014000E100E0FCE100E0F8B51E1CBB
:10900000051C0F1C141C0720B3074BD1002E49D0A0
:10901000FFF782FD244A069B24211361131C293388
:109020001F704F43F1190F1C331CD660994204D0B6
:109030000020187018752433F8E70320531CD877E4
:109040001823516218310E1C634300207960387078
:109050007870BC700837C918B742F6D10123802454
:10906000C021C526FF275B429360104B6403490073
:1090700010755075B6005C509959B9433F3F39435C
:109080009951A1211C600A4CC9006550C425AD004E
:109090005E5908493140C026360231435951064BCA
:1090A000E3581360F8BDC046D828002000E100E076
:1090B00000100140FF00FFFF04050000114BF0B558
:1090C000DC68061C0820002C1AD00138002A17D0B2
:1090D000002E15D0002529331F78BD420FDA201C41
:1090E0002434231C243B1B78002B06D1012441701F
:1090F000047082613560181C02E00135EDE7042040
:10910000F0BDC046D8280020F0B51F4C061CE5680D
:1091100085B00820002D34D0231C29331B7801385A
:109120009E422ED204292CD924237343EB181D7898
:109130000130012D25D15B780027012B00D10F1CB8
:1091400001920D1CFFF7B5FC646AC0002418201CB6
:1091500003A9FFF799FC031C0420002B11D0012266
:109160000A491A700A4A5E608A5800209A60019A79
:10917000DD605A6180221F61039B52036370054BBF
:109180005A6005B0F0BDC046D8280020001001404C
:1091900004050000FCE100E073B5154E0823F268F9
:1091A000002A22D0331C29331978072388421CD285
:1091B0001D3343439A5C0823012A16D1051CFFF78F
:1091C00078FC746AC0002418201C01A9FFF75CFC1D
:1091D0000423002809D08022023B0370019B4560D4
:1091E0006370044B52035A600023181C76BDC046BE
:1091F000D8280020FCE100E013B50F4C0823E268FA
:10920000002A16D0FFF755FC646AC0002418201C01
:1092100001A9FFF739FC042300280AD08022013B72
:109220000370043B4360019B52036370034B5A601D
:109230000023181C16BDC046D8280020FCE100E021
:10924000024A034BD35803600020704700100140CE
:1092500004050000401A0002000A10600020704758
:10926000A2DF7047421ED2B2042A04D80549885CA6
:1092700005318B5C01E00023181C0F221B011040FC
:1092800018437047B4A801000B7803704B78437003
:109290000220704738B5041C081C0D1C01F01AF898
:1092A0006560208038BDF0B591B0009001928B7858
:1092B0000C1C03AF002B00D101330025BB702388A9
:1092C00009AE3B8002AB1D809D70207CFFF7CAFF7A
:1092D00002AB1870607CFFF7C5FF02AB587001202D
:1092E000A17B0140CA0099780823994311431022B9
:1092F000E37B914303401B01227B0B43E17C8343CF
:109300000240181C4B1E9941032301311940031CD4
:1093100013430622490093430B4302AA9370301C67
:109320001C22291C00F07AFF3023627B1A4207D0EE
:1093300002AB1D819D72A07CFFF794FF04AB7361AB
:10934000637B04AD281C00211422337000F066FFFB
:1093500002AB6B60A3880497AB81A368002B02D09B
:10936000E2882B612A81009809A92A1C019BFFF73A
:1093700077FF11B0F0BDC04672B6024A13680133E0
:109380001360704704290020034A1368013B1360EF
:10939000002B00D162B6704704290020F0B5890186
:1093A000002814DA0F23C4B22340083B174A9B0855
:1093B00003259B009B18FF222C40AC40151C11403C
:1093C000A540A140DE69AE433143D96112E0104BA4
:1093D00082089200D218FF2303241F1CC0250440DA
:1093E000E400A740AD0056591940BE43A140331CCC
:1093F0000B4353511F2318401E3B8340C022181CAF
:10940000034B520098501860F0BDC04600ED00E0DC
:1094100000E100E082B00190019B002B12D0019B83
:109420000948013B01930138C046C046C046C046CA
:10943000C046C046C046C046C046C046C046C046FC
:10944000F1D1E9E702B07047E7030000031CA02256
:109450000321C133FF33D2059B0099500123834080
:10946000181CA123DB00D050704701238340A022A9
:10947000181C024BD205D0507047C0460C050000A6
:1094800001238340A022181CA123D205DB00D05069
:109490007047A02310B50124064ADB059A58211C09
:1094A000C2408140224202D1A122D20000E0024A01
:1094B000995010BD040500000C050000A0DF7047A6
:1094C000A2DF7047A3DF7047A4DF7047A6DF7047B5
:1094D00013B50B88112B05D0502B07D0102B1CD1A6
:1094E0008B8801E001235B42438216E0037D002B61
:1094F00013D0CC88428994420FD1CB8B022B0CD154
:109500000368002B09D00131CA7F01A9D20701D518
:10951000002200E001220A70984713BD0B68F0B5E5
:109520000360012301245B4243820A7993B00374F0
:10953000404B0275071C021D0E1C201C04A98C70D8
:109540000B80FFF7BBFF051E70D13D7D002D07D0BE
:10955000102202AB14431C70727B5A7002229A7064
:1095600000211C220BA800F059FE012302222B40EF
:109570001B0113432C216A46521813706A1E954131
:1095800002AB6D422B40109301226B469A756A46DE
:10959000294B06AC9382B37B00211373F37B201C11
:1095A00053736B4602229A73DD1C337B14222B709B
:1095B00000F034FE05AB069303AB63600123238107
:1095C00001232561A381B888BB1D0BA9221CFFF7CD
:1095D00077FF051E2AD1B168002926D06B460122EB
:1095E0009A756A46154B93826B469881337C01A825
:1095F00013736B4602229A73FFF746FE061C291C62
:109600001422201C00F00AFE3A1C05AB236003ABB9
:109610006360B6B201AB2681A6812361F8880E3261
:10962000211CFFF74FFF051C00E0F881281C13B038
:10963000F0BDC0460F180000192A000008290000DC
:10964000F0B589B06B46D971027C051C0733002048
:109650008A4226D0012202AE029029743280E98823
:10966000688A321C0393FFF72FFF011E19D16F8AFE
:109670000D4B08309F4214D02B7D002B11D004AC31
:10968000201C102200F0CAFDEB88381C2380012327
:10969000A3707388211CA3807368A660E360FFF742
:1096A00015FF09B0F0BDC046FFFF00003CDF70476A
:1096B00048DF704773DF704774DF704777DF7047AC
:1096C0007CDF70477FDF704782DF7047A2DF704723
:1096D000A9DF704763DF7047704708B5024B002B66
:1096E00001D000E000BFFEE70000000008B5034B1A
:1096F000002B02D0024800E000BFFEE7000000009F
:10970000EFBEADDE10B5324C86B00E20211C4822D3
:109710000023FEF745FE002805D02E4B002B01D07C
:1097200000E000BFFEE70490059004A800F002FAF4
:10973000002805D0274B002B01D000E000BFFEE73A
:109740002548FEF755FE002805D0224B002B01D0FE
:1097500000E000BFFEE72148FEF754FE002805D0D8
:109760001C4B002B01D000E000BFFEE76B466946B2
:1097700018705870A36C02AC1A788A70E522CA700F
:109780004D3A0A7128324A715B88154A934206D0D5
:1097900009200B701B0A4B706844062207E0201C4E
:1097A00000F0C0F90B206B4604226844991C00F0BD
:1097B000F7FC0020211C207000F0B2F9002805D031
:1097C000044B002B01D000E000BFFEE706B010BD47
:1097D0000829002000000000C9980100D996010066
:1097E000FFFF00007FB50420FFF768FF112301AEE3
:1097F00033701A4B9C6C6568281C00F06BFD291CAB
:1098000082B2301CFFF75CFF002805D0144B002B00
:1098100001D000E000BFFEE7802000F085F90028BD
:1098200005D00F4B002B01D000E000BFFEE70290F7
:109830000390628902AB1A80A289181C5A80C82240
:109840005200DA8000F072F9002805D0044B002B9A
:1098500001D000E000BFFEE77FBDC0460829002020
:109860000000000010B5054C0021201C182200F05B
:10987000D5FC034B9B6C1B89238210BD8C290020D7
:10988000082900207047704708B50648FFF712FF07
:10989000002805D0044B002B01D000E000BFFEE7FC
:1098A00008BDC0468C2900200000000008B5FFF765
:1098B00003FF002805D0034B002B01D000E000BFC0
:1098C000FEE708BD0000000010B50388041C142B3F
:1098D0004DD006D8112B15D0132B2AD0102B62D1C6
:1098E00006E0502B1FD0522B32D0192B5BD14DE00C
:1098F0002F4B82881A802F4B002B01D000E000BF35
:1099000003220BE001222A4B52421A802A4B002BE1
:1099100001D000E000BFFFF7C9FF0022274B1A70FB
:10992000FFF7B2FF3FE0264B002B3CD000E000BF2A
:1099300039E000211E4B234A18880B1CFFF7C2FE9A
:10994000002830D0204B002B01D000E000BFFEE704
:109950000021174B0A1C18880B1CFFF7B9FE0028C2
:1099600021D0194B002B01D000E000BFFEE7002101
:109970000F4B0A1C18880B1CFFF7A6FE002812D0FC
:10998000114B002B01D000E000BFFEE78379002BD4
:1099900009D1FFF78BFE002805D00B4B002B01D01F
:1099A00000E000BFFEE7201CFEF7FAFF10BDC04636
:1099B000A429002000000000000000008C290020E5
:1099C00000000000182000200000000008B5FFF78C
:1099D0006FFE002805D0034B002B01D000E000BF34
:1099E000FEE708BD0000000008B5074B9864FFF7CC
:1099F00089FEFFF7F7FEFFF735FFFFF744FFFFF79C
:109A000041FF024808BDC04608290020A4290020C3
:109A100037B50A800C1C0231FFF75CFE01900198FB
:109A2000002805D00C4B002B01D000E000BFFEE762
:109A30006B469D1C0120211C2A1C00F079F8019026
:109A40000198002805D0044B002B01D000E000BF96
:109A5000FEE728883EBDC04600000000F0B5071CA8
:109A600095B001931AAB1B880DAD02931BAB1B88FD
:109A70000E1C00931DAB1B88141C00211C22281CEB
:109A8000039300F0CBFB0122381C311C10409040A6
:109A90001140C900C0B2144008432301041C1C43F8
:109AA0006B461B792C7007ACA3706B4600211B8999
:109AB000238005AB198099708F4202D010310A4380
:109AC0001A70002E01D011225A70062205AFBB7801
:109AD00008AE9343023A134300211032301CBB708E
:109AE00000F09CFB6B461B88039833816B461B88F8
:109AF000291CB3811C9B321C33611E9B0894776028
:109B0000FFF7E4FD06900698002805D0034B002BD4
:109B100001D000E000BFFEE715B0F0BD000000007E
:109B200070DF704771DF704778DF70477ADF70470A
:109B3000A0DF704760DF704700B58DB00021302294
:109B4000684600F06BFB6A4602231370013B93707A
:109B5000684605330021D370FEF74CFE002803D081
:109B600000210A1CFFF7B9FDFFF78EFE0DB000BD06
:109B700030B599B00CAC051C00213022684600F0CD
:109B80004DFB00213022201C00F048FB01236A46D7
:109B90006946937006220B82CA70DB186846211C46
:109BA00005952370FEF726FE002803D000210A1C2D
:109BB000FFF793FDFFF768FE19B030BD08B512201E
:109BC000FFF744FC1320FFF741FC1420FFF73EFC95
:109BD000002008BD10B50021041C00F0BBFB044BA5
:109BE0001868C36B002B00D09847201C00F050FE73
:109BF000C4A8010070B50D4E0D4D0024AD1BAD1075
:109C000005D0A300F35801349847A542F9D100F0DC
:109C100041FE084E084D0024AD1BAD1005D0A30039
:109C2000F35801349847A542F9D170BD5C28002053
:109C30005C2800205C2800206428002008B5034B25
:109C4000011C186800F00EF808BDC046482400202A
:109C500008B5034B011C186800F072FC08BDC04633
:109C600048240020F0B55F464D4656464446F0B4C1
:109C70000D1C0B3583B0071C162D2DD907239D43D2
:109C800000D5C7E0A94200D9C4E000F00DFBF823DD
:109C9000FF339D4228D8E908CB4ECB00F318DC688F
:109CA0009C4200D1C1E1032362689A43131CE2681D
:109CB000A168CA6091600122E3185968381C0A4300
:109CC0005A6000F0F3FA201C083003B03CBC904608
:109CD0009946A246AB46F0BD102900D99AE0381C3F
:109CE00000F0E2FA1025D6E7690A00D196E00429CF
:109CF00000D93CE138239C46A9098C4463465900AD
:109D0000B14E89007118CC68A14215D00323626856
:109D10009A43131C521B0F2A00DD83E00320002A04
:109D200007DBC4E7636883435A1B0F2A7ADC002AE7
:109D3000BDDAE468A142F5D1614601310091321CDF
:109D400034690832944200D161E103236168994388
:109D50000B1C481B0F2800DD48E1726132610028AE
:109D6000A9DA9A4A914200D90DE10123C80882106C
:109D7000934072681A43C300F3189868E360A060C8
:109D80009C60131C7260C4600120009A9210904085
:109D900098424CD818420DD10322009940009143BB
:109DA0000A1D0092184205D1009A40000432009228
:109DB0001842F9D003239846009AD3009946B1443B
:109DC000CC4692466346DC68A44507D121E1002ACF
:109DD00000DB33E1E468A44500D11AE14246636840
:109DE00093435A1B0F2AF2DD012163190D4365606D
:109DF000E068A5680836E86011438560F360B360E9
:109E0000381CDE609E6059609A5000F04FFA201CAA
:109E100008305AE70C2300203B6056E73F237E21A1
:109E20009C466DE701235B429846C44484E70323C4
:109E3000B46862689A439046954203D8521B0F2A31
:109E400000DD86E0231C4344614A0193614B934645
:109E50001B681268EB18013200D15CE15E4A94463F
:109E600063441B0B1B030093381C009900F020FA7D
:109E7000031C8146013360D0019B834200D9F8E086
:109E8000564B009A9A461B689C46534662441A6099
:109E9000019B4B4500D14CE15B461B68013300D16F
:109EA0005EE14B4601995B1AD21853461A600723AC
:109EB0004A46134000D113E108218946D21A914441
:109EC000474AD21A009B381C4B441B051B0DD31A62
:109ED000191C9B4600F0ECF9431C00D134E14B46C1
:109EE000C01A01235844184353461B685B441A1C8C
:109EF00053461A604B46B3605860B44213D0434691
:109F00000F2B00D8F7E04346072160680C3B8B43DA
:109F100006390140052019436160E11848608860F6
:109F20000F2B00D914E12F4B19688A4200D91A600F
:109F30002D4B19688A4200D91A600323B4686268FD
:109F40009A43131C5A1B9D4200D9B9E00F2A00DC2A
:109F5000B6E00123291C6519194313436160381CBD
:109F6000B5606B6000F0A2F9201C0830ADE6142942
:109F700073D9542900D9A8E06E239C46290B8C4440
:109F800063465900BCE64A0A042A6CD88A0938326A
:109F9000101C520092009446B44462460321926819
:109FA0008846624500D19EE041465068884383421E
:109FB00002D292689445F7D1D0687368E060A260DD
:109FC0008460D460E0E6C0464C240020FF0100001D
:109FD000582800205C2900200F1000006029002074
:109FE000081000005829002054290020012163197D
:109FF0000D430143656073613361DA609A605960B3
:10A000001850381C00F052F9201C08305DE67368C7
:10A01000BAE608239B46073BDC449B46DA444346AA
:10A020005246134200D0CDE631E0231C64698A1CFD
:10A0300008330092A34200D181E634E60122E318FE
:10A040005968381C0A435A60E368A268D3609A6072
:10A0500000F02CF9201C083037E65B239C468C442A
:10A06000634659004CE6142A58D85B32101C520043
:10A0700090E7B44200D060E702E7009B013B009309
:10A080004B461A68083B91469A4200D080E043460E
:10A09000009A1342F1D17368834373604000984281
:10A0A00000D9C4E6002800D1C1E6184272D1524658
:10A0B0000092009A4000043200921842F9D07BE6E8
:10A0C000381C00F0F3F80020FFE5AA235B0099425A
:10A0D00017D8DD3B9C46E90B8C44634659000FE6DC
:10A0E00080225201EEE60123801083407168101C2B
:10A0F0000B43736062E701234A464C4653600023DA
:10A1000020E7264B994210D87C239C46A90C8C440E
:10A1100063465900F4E510330093A5E6542A23D88A
:10A120000A0B6E32101C520034E77E23FC219C4641
:10A13000E6E51B0500D0AFE6009BB1684344181C60
:10A14000012303434B60EEE6002301209B46CBE650
:10A15000211C381C083100F0F3F953461A68E2E676
:10A160005B464A461A60A2E6AA204000824204D812
:10A17000CA0B7732101C52000CE70848824204D800
:10A180008A0C7C32101C520004E7FC227E2001E77E
:10A19000736883E7534600930EE6C04654050000FB
:10A1A00070B50F2A32D9041C0C430B1CA40731D103
:10A1B000151C041C103D2D0901352D0149191E687F
:10A1C00026605E6866609E68A660DE681033E660A2
:10A1D00010349942F3D10F2345191340032B1BD997
:10A1E0001C1F0023A4080134A400CE58EE500433F1
:10A1F000A342FAD1ED18C91803231A4005D0002351
:10A20000CC5CEC5401339342FAD170BD051C002A9A
:10A21000F5D1FAE7051CF2E71A1CF8E770B58307D9
:10A220003FD0541E002A3BD0CEB2031C032503E0CE
:10A23000621E002C34D0141C01335A1E16702B429F
:10A24000F6D1032C24D9FF250D402A0215432A04F8
:10A2500015430F2C11D9261C103E36090136360144
:10A260001A1C9B19156055609560D5601032934299
:10A27000F8D10F221440032C0AD9261FB608013644
:10A28000B6001A1C9B1920C29342FCD10322144031
:10A29000002C05D0C9B21C1919700133A342FBD19F
:10A2A00070BD141C031CCCE77047C0467047C04605
:10A2B00038B50023064C051C081C236000F0DAFAB0
:10A2C000431C00D038BD2368002BFBD02B60F9E77E
:10A2D000A829002010B5830727D00378002B26D0AB
:10A2E000031C032102E01A78002A1CD001330B4220
:10A2F000F9D119680F4A104C8A188A4322420FD1AB
:10A30000043319680B4A8A188A43224208D104335D
:10A310001968084A8A188A432242F1D000E00133C2
:10A320001A78002AFBD1181A10BD031CE1E700209F
:10A33000FAE7C046FFFEFEFE8080808008B5034B32
:10A34000002B02D0024800F089F808BD0000000090
:10A350006DA40100F0B556465F464D464446F0B444
:10A360000E1C3C4B87B01B68019003934933FF33AD
:10A370000493A422039B52009F58002F4CD0049BAF
:10A38000984600239B46C4235B009C46BC4463461E
:10A390000293C6235B009A467C68BA44A5007D19E7
:10A3A000013C08D526E06B1DFF331B68B34204D087
:10A3B000043D013C1ED3002EF5D17B686A68013B49
:10A3C000A3423AD05B466B60002AF1D07B680299C9
:10A3D00099460123A34009680591194223D190476A
:10A3E0007B684B45C5D143461B68BB42C1D1043D88
:10A3F000013CE0D2184B002B0ED07B68002B23D100
:10A400003B68002B24D04246381C1360FFF720FC29
:10A4100043461F68002FB6D107B03CBC9046994612
:10A42000A246AB46F0BD51460968194207D12B1C24
:10A430008433196801989047D2E77C60C4E72B1CED
:10A44000843318689047CBE73B68B8461F1CE1E7A8
:10A450000023FAE7C4A80100519C010008B5011CC3
:10A4600000220020002300F09BF908BD38B5094BFD
:10A47000094CE41AA41009D0084AA518AD00ED183B
:10A480002B68013C9847043D002CF9D100F008FAF4
:10A4900038BDC0466428002068280020FFFFFF3F29
:10A4A000F8B50C1C061CFFF7FFFE204FBB685D686B
:10A4B00003239D431E4B2C1B9C466444240B1D4BC5
:10A4C000013C24039C4207DD301C0021FFF7F0FE15
:10A4D000BB685B19984204D0301CFFF7E7FE0020F0
:10A4E000F8BD6142301CFFF7E3FE431C0DD0012391
:10A4F0002D1BBA681D43104B55601A68301C141B85
:10A500001C60FFF7D3FE0120EAE7301C0021FFF7B3
:10A51000CFFEBB68C21A0F2ADEDD08490968401A5F
:10A520000549086001210A435A60D5E74C24002000
:10A53000EF0F0000FF0F00006029002058280020C6
:10A54000F0B5474680B4002949D00C1C051CFFF724
:10A55000ABFE211C08394F6801233C1C9C430A199F
:10A560005068984602339843031C5B4886689642BD
:10A5700052D0464653603E420BD10826B4460F687F
:10A580008444C91BE4198F6867455ED0CE68FE60BD
:10A59000B7600127D61876683E4208D1E4184F4EBE
:10A5A0009368B34200D173E0D268DA6093604C4B99
:10A5B00027434F600C519C4214D8E408FF3BA21083
:10A5C000FF3B93404268E4001343436000198368F3
:10A5D000C8608B608160D960281CFFF767FE04BCEF
:10A5E0009046F0BD630A042B43D8A30938331A1CE4
:10A5F0005E00B6008619B3680327B3423FD05A689D
:10A60000BA43A24202D99B689E42F8D1DA68CA6076
:10A610008B609160D960DFE71C1943463B4206D14D
:10A620000B68C91A8A68E418CB68D3609A60012263
:10A630002C4B22431B684A6081609C42CCD32A4B3E
:10A64000281C1968FFF72CFFC6E74646D01840685B
:10A65000304209D14646E418D36892682643D36055
:10A660009A604E600C51B7E7464626434E600C5147
:10A67000B2E7142B14D85B331A1C5E00B9E701242F
:10A6800092109440221C4468224342601A1CBEE788
:10A690002743D9609960CB608B604F600C519BE77A
:10A6A000542B04D8230B6E331A1C5E00A1E7AA2298
:10A6B0005200934204D8E30B77331A1C5E0098E7EC
:10A6C0000A4A934204D8A30C7C331A1C5E0090E71C
:10A6D000FC267E228DE7C0464C2400205424002016
:10A6E000FF010000542800205C29002054050000D0
:10A6F00038B50C1C0968051C002901D0FFF7F8FFCC
:10A70000281C211CFFF71CFF38BDC046234B70B529
:10A710001B68984235D0C36C051C002B11D0002655
:10A720009959002906D00C68281CFFF709FF211E43
:10A73000F9D1EB6C0436802EF2D1281C191CFFF7DE
:10A74000FFFE296C002902D0281CFFF7F9FEA42384
:10A750005B00E95800290BD02E1C4D36FF36B14264
:10A7600006D00C68281CFFF7EBFE211CA642F8D18E
:10A77000696D002902D0281CFFF7E2FEAB6B002BAD
:10A7800000D170BDEB6B281C9847B8239B00E9589B
:10A790000029F6D0281CFFF7ABFFF2E74824002081
:10A7A000F8B544465F4656464D469B462F4BF0B49F
:10A7B0001C68A4235B00051CE0580E1C9046002872
:10A7C0004BD043681F2B0DDC5C1C002D21D10233C4
:10A7D0009B0044601E5000203CBC90469946A24617
:10A7E000AB46F8BD224B002B3CD0C8204000FFF701
:10A7F00025FA002836D0A42200235200A158436035
:10A800000160A05040328350043283500124002D57
:10A81000DDD09A0091468144424688214F467A50C5
:10A82000C4225200904680444246873999401268BB
:10A830008A460A439446424661461160842249464C
:10A840005F4652008F50022DC1D1021C55468D32F9
:10A85000FF3211680D431560B9E7201C4D30FF3001
:10A86000E050AEE701204042B6E7C046C4A8010070
:10A870003D9C0100044A1368002B03D01818106097
:10A88000181C7047014BF9E788290020B0290020E7
:10A89000FEE7C046F8B5C046F8BC08BC9E46704707
:10A8A000F8B5C046F8BC08BC9E4670476E75636C30
:10A8B00065756D0001010102020102030102000041
:0CA8C000430000002020002000000000E9
:08A8CC0054D8FF7F01000000D9
:10A8D400000000000024F4008000FFFFACA8010089
:10A8E40020039001200300000D0710000000000069
:10A8F400000000000C23002074230020DC2300202F
:10A904000000000000000000000000000000000043
:10A914000000000000000000000000000000000033
:10A9240000000000C0A801000000000000000000BA
:10A934000000000000000000000000000000000013
:10A944000000000000000000000000000000000003
:10A9540000000000000000000000000000000000F3
:10A9640000000000000000000000000000000000E3
:10A9740000000000000000000000000000000000D3
:10A9840000000000000000000000000000000000C3
:10A9940000000000000000000100000000000000B2
:10A9A4000E33CDAB34126DE6ECDE05000B00000077
:10A9B4000000000000000000000000000000000093
:10A9C4000000000000000000000000000000000083
:10A9D4000000000000000000000000000000000073
:10A9E4000000000000000000000000000000000063
:10AD140000000000000000002020002000000000CF
:10AD2400000000004C2400204C2400205424002067
:10AD3400542400205C2400205C240020642400208F
:10AD4400642400206C2400206C240020742400203F
:10AD5400742400207C2400207C24002084240020EF
:10AD6400842400208C2400208C240020942400209F
:10AD7400942400209C2400209C240020A42400204F
:10AD8400A4240020AC240020AC240020B4240020FF
:10AD9400B4240020BC240020BC240020C4240020AF
:10ADA400C4240020CC240020CC240020D42400205F
:10ADB400D4240020DC240020DC240020E42400200F
:10ADC400E4240020EC240020EC240020F4240020BF
:10ADD400F4240020FC240020FC240020042500206E
:10ADE400042500200C2500200C250020142500201B
:10ADF400142500201C2500201C25002024250020CB
:10AE0400242500202C2500202C250020342500207A
:10AE1400342500203C2500203C250020442500202A
:10AE2400442500204C2500204C25002054250020DA
:10AE3400542500205C2500205C250020642500208A
:10AE4400642500206C2500206C250020742500203A
:10AE5400742500207C2500207C25002084250020EA
:10AE6400842500208C2500208C250020942500209A
:10AE7400942500209C2500209C250020A42500204A
:10AE8400A4250020AC250020AC250020B4250020FA
:10AE9400B4250020BC250020BC250020C4250020AA
:10AEA400C4250020CC250020CC250020D42500205A
:10AEB400D4250020DC250020DC250020E42500200A
:10AEC400E4250020EC250020EC250020F4250020BA
:10AED400F4250020FC250020FC2500200426002069
:10AEE400042600200C2600200C2600201426002016
:10AEF400142600201C2600201C26002024260020C6
:10AF0400242600202C2600202C2600203426002075
:10AF1400342600203C2600203C2600204426002025
:10AF2400442600204C2600204C26002054260020D5
:10AF3400542600205C2600205C2600206426002085
:10AF4400642600206C2600206C2600207426002035
:10AF5400742600207C2600207C26002084260020E5
:10AF6400842600208C2600208C2600209426002095
:10AF7400942600209C2600209C260020A426002045
:10AF8400A4260020AC260020AC260020B4260020F5
:10AF9400B4260020BC260020BC260020C4260020A5
:10AFA400C4260020CC260020CC260020D426002055
:10AFB400D4260020DC260020DC260020E426002005
:10AFC400E4260020EC260020EC260020F4260020B5
:10AFD400F4260020FC260020FC2600200427002064
:10AFE400042700200C2700200C2700201427002011
:10AFF400142700201C2700201C27002024270020C1
:10B00400242700202C2700202C2700203427002070
:10B01400342700203C2700203C2700204427002020
:10B02400442700204C2700204C27002054270020D0
:10B03400542700205C2700205C2700206427002080
:10B04400642700206C2700206C2700207427002030
:10B05400742700207C2700207C27002084270020E0
:10B06400842700208C2700208C2700209427002090
:10B07400942700209C2700209C270020A427002040
:10B08400A4270020AC270020AC270020B4270020F0
:10B09400B4270020BC270020BC270020C4270020A0
:10B0A400C4270020CC270020CC270020D427002050
:10B0B400D4270020DC270020DC270020E427002000
:10B0C400E4270020EC270020EC270020F4270020B0
:10B0D400F4270020FC270020FC270020042800205F
:10B0E400042800200C2800200C280020142800200C
:10B0F400142800201C2800201C28002024280020BC
:10B10400242800202C2800202C280020342800206B
:10B11400342800203C2800203C280020442800201B
:10B124004428002000000200FFFFFFFF3DA30100B0
:08B13400E9800100C180010067
:04B13C00000000000F
:0400000310008199CF
:00000001FF
