:020000021000EC
:108000000040002099810100D9810100DB8101003D
:108010000000000000000000000000000000000060
:10802000000000000000000000000000DD810100F1
:108030000000000000000000DF810100E18101007C
:10804000E5810100E7810100E9810100EB81010088
:10805000ED8101000000000099830100F181010021
:10806000F3810100F5810100F7810100F981010030
:10807000FB810100FD810100FF81010001820100FF
:10808000038201001989010007820100000000003D
:10809000B58901000B820100F18701000F82010008
:1080A00011820100138201000000000000000000A6
:1080B00000000000000000000000000000000000C0
:1080C00010B5064C2378002B07D1054B002B02D0AE
:1080D000044800E000BF0123237010BD44240020A9
:1080E00000000000C493010008B5084B002B03D02A
:1080F0000748084900E000BF07480368002B00D18B
:1081000008BD064B002BFBD09847F9E700000000A4
:10811000C4930100482400204024002000000000F7
:10812000164B002B00D1144B9D46402292029A1A06
:10813000924600218B460F461348144A121A00F04B
:10814000CDFF0F4B002B00D098470E4B002B00D0DB
:1081500098470020002104000D000D48002802D09F
:108160000C4801F091F800F095FF2000290000F084
:1081700095FA00F07FFFC046000008000040002094
:108180000000000000000000442400200B25002017
:1081900089920100999201000948026803210A436B
:1081A00002600849084A094B9B1A05DD002408595A
:1081B000105104349C42FADB0548804705480047CB
:1081C00024050040D093010000200020402400201E
:1081D0002582010021810100FEE7FEE7FEE7FEE7C0
:1081E000FEE7FEE7FEE7FEE7FEE7FEE7FEE7FEE767
:1081F000FEE7FEE7FEE7FEE7FEE7FEE7FEE7FEE757
:10820000FEE7FEE7FEE7FEE7FEE7FEE7FEE7FEE746
:10821000FEE7FEE7014A024B1A6070470024F400B3
:10822000042000201B4A10B51378111C012B19D112
:10823000194B1B681B0715D1184BE0241A68F02353
:10824000101C184022420BD1154A12681A4209D15B
:10825000144A154B1A608022144B12021A6001E076
:108260003028F1D00B68DBB2012B12D10A4A126818
:1082700012070ED1F021094A12680A40402A08D19B
:10828000074A12680A4204D1C1228021D200C905DE
:108290008B5010BDE00F00F0E40F00F0E80F00F08D
:1082A000EC0F00F0DFFF07C004050040186C004031
:1082B000BFF34F8F024A034BDA60BFF34F8FFEE7E5
:1082C0000400FA0500ED00E00D4B30B51A681423E8
:1082D000584384580022012393401C420BD0A02114
:1082E0009300C9055B18E021C9005D580548284086
:1082F0005850585858500132202AECD130BDC04651
:1083000060240020FFFFFCFF48DF70470B0708D503
:10831000A022A1238021D205DB00C902D150042173
:10832000D150030707D5A0228021034BD205C902F3
:10833000D1500421D15070470C05000038B50024FD
:10834000114B196018715C719C6014234343081C25
:108350001A1C211C00F0C2FE0121C223C1200B4ABD
:1083600049429B00D1500A4A893B4131FF3BD150E1
:1083700080001558074B2B408025ED032B431350ED
:10838000201C116038BDC046602400200060004001
:1083900000E100E0FFFF00FFA223A022DB00D205E6
:1083A000F0B5D5580023BE221E1C454985B05200A9
:1083B0008B5001930024434A5779BC423CD201219F
:1083C000A140936810680B4233D014236343C31851
:1083D0000020019A19689143DA680E436A400296B8
:1083E00091430122824011420FD0A0268200F6055F
:1083F0009219E026F6009759BC466646324F374040
:10840000E026F60097519759975101302028E8D17E
:10841000019A029E0A43019296439A685868AA43B9
:10842000171C284007430F4203D008401B69114026
:1084300098470134E4B2BEE7A223A021DB00C905BE
:10844000CB586B4033405D40002BB3D1916812682C
:108450000391D9B2B94231D201219940039808421F
:1084600029D01168019801408C4624D000200121B8
:1084700081400C1C614621421AD0D168214203D1AF
:108480002143D160802102E0A143D160C021A0241A
:1084900089020291E40581000919E024E4000D59E4
:1084A0002E1C094D35400D510D59029E2E430E5183
:1084B00001302028DBD101331432CAE705B0F0BD0A
:1084C0000060004060240020FFFFFCFF08B5031C93
:1084D0000720002904D08A0702D1181CFFF72EFFBD
:1084E00008BDF8B50F4E08243768002F18D0013C9E
:1084F000002B15D034797579A4460424AC450FD9E6
:1085000010346C433C190F1C1743236127606160D2
:10851000A2606B1C0570281C73710024FFF7D4FE49
:10852000201CF8BD60240020234BF0B519680822F8
:1085300000293FD05C79013A84423BD900241F4D89
:108540007632FF32AC50A222A024D200E405A45817
:108550009A68002A04D18027C1263F06B600AF5191
:10856000012585402A439A601423584300230818A4
:108570000568C36001229A40154217D0144204D105
:10858000C1680A43C260802200E0C022A02192029A
:108590009446C9059A005218E021C9005758084E60
:1085A0003740575067465658374357500133202BB2
:1085B000E0D10022101CF0BD6024002000600040CB
:1085C000FFFFFCFF38B50E4D08232A68002A14D09F
:1085D0006A79013B824210D9041CFFF775FE012025
:1085E000A040AB688343AB6006D18020C22205491E
:1085F00000069200885000E00023181C38BDC046D9
:1086000060240020006000400B4A30B51468082345
:10861000002C0ED05279013B82420AD9A223A0221B
:10862000DB00D205D5581422504303592B400B6070
:108630000023181C30BDC0466024002008B5FFF799
:1086400037FEA023E9210322DB05C90010B55A50EB
:1086500040395A5000210D4A012099500C490C31E3
:10866000FFF76CFE002801D0FFF722FE0821094C1D
:108670000A1C201C084BFFF734FF0028F4D1207897
:10868000FFF752FF0028EFD110BDC0460C070000D5
:10869000602400200A2500200D830100084908B548
:1086A0000E2020314822002300F066F8002801D077
:1086B000FFF7FEFDFFF7C5FFFFF726FEFCE7C0460C
:1086C000602400202EDF704751DF704710DF7047B5
:1086D00011DF704761DF704708B5081C111C00E00E
:1086E00000BF08BDF0B5234E85B03378002B3ED0D7
:1086F0007568B4686B425D4163425C41EDB2E4B2BF
:10870000002D32D103A8FFF7DFFF05280AD000288B
:1087100004D0291C2A1CFFF791FF04E0039873681A
:10872000984700E00125002C1CD1B38903A90B80D8
:1087300033690124181C0193FFF7CCFF071E052F96
:108740000BD0002805D000210A1CFFF777FF00247A
:1087500003E00198B36898473C1C002DD0D0002C52
:10876000CED004E0002D02D1CAE7002CDDD005B048
:10877000F0BDC046C824002038B5051C07200029DC
:1087800010D08C070ED1084C281C21610749A2810A
:108790006361FFF79BFF002804D10123163023708B
:1087A000FFF790FF38BDC046C8240020D9860100DD
:1087B00008B5FFF78DFF031C5A1E9341014ADBB237
:1087C000137008BDC82400200E23002802D0024BDD
:1087D00098600023181C7047C82400200E2300282E
:1087E00002D0024B58600023181C7047C824002098
:1087F00008B5074B5B69002B07D09847002806D0C7
:1088000000210A1CFFF71AFF01E0FFF76BFF08BD0C
:10881000C824002010B54378827801339A1A041CCA
:10882000501E82415242134022780020934205D0CC
:108830000B601823607843436068C01810BD164B66
:1088400002205968C905C90D24D01039CBB25AB2DB
:10885000002A0BDA0F221A40083AC24082400F4920
:10886000521803210B4052688B4007E092080C4BD2
:10887000C0329200D25803230B40DB00DA40D3B25F
:108880009B09DBB20020012B04D0033B5A425A4122
:108890000230801A7047C04600ED00E018ED00E09D
:1088A00000E100E08022194B9202DA67D221802297
:1088B000174B520289005A5040395A5001222F2139
:1088C0005A60081C0138C046C046C046C046C04673
:1088D000C046C046C046C046C046C046C046F1D1AC
:1088E0009A6000220B4B081C1A600138C046C04633
:1088F000C046C046C046C046C046C046C046C04648
:10890000C046C046F1D11A717047C04604E100E08C
:1089100000100140E0240020F8B50025204B214C38
:108920005D649D64DD641D655D609D60A7687B1C62
:1089300034D01D4B1D4AD6582368F61A3602360A23
:1089400024235F43E368DB195A68964214D3B61AAE
:10895000AD1822691F6A002A09D09869D969904721
:10896000002807D000210A1CFFF768FE02E09A6980
:10897000D86990477B1CE3D1227D637D934205D16A
:108980000133DBB2022B00D1002363758022637DAB
:1089900052039B00E418064BA5615A60F8BDC0461F
:1089A000FC100140E02400200405000000100140FC
:1089B000FCE100E0F0B5BD4B8BB01A68597D039225
:1089C0001A7D914211D00132D2B2022A00D1002286
:1089D0001A751A7D92009A189769039ABA181202AA
:1089E000120A1A600122059201E0002705979A6891
:1089F00006925A1CD27F01925A6A0992DA68009252
:108A00001A6828331B780892019A0493069B0292F5
:108A1000029A013AD2B20292FF2A68D0029AD50095
:108A2000099A551929786A788A42F1D018224A435E
:108A3000AC7801316868C9B2641A8218601E84413A
:108A4000107864422140022803D01A1C03284CD11C
:108A500041E02420526850439446009A8018027DD9
:108A60000792079C1A1C002C3FD01E1C1C1C721C59
:108A700008D0664508D024227243009C1219341C89
:108A8000166AF4E71A1C23E01A1CB4420DD1242202
:108A90005343009A9B181A6A531C06D10126844B33
:108AA0009E60079B0493002308934368066A9C46D4
:108AB00024235C43009BE4182662741C08D0242302
:108AC0007343009C1B195E686446B44664445C6052
:108AD0000023037509E0531C07D024235A43009B4D
:108AE000D21800231375126AF5E7131C9BE76F4A2F
:108AF0006846111C007C2831087008999360116049
:108B00000599002909D1069A9B1A5A1E9341DBB296
:108B1000029301235B429C462AE0D568012252421F
:108B2000944600205A1C1FD024225A43AA18516888
:108B30008F4205D25D48C91B83605160012316E056
:108B40007F1A40180021146951601175166A8C4211
:108B500008D00399D46041180902090A916061465E
:108B60009C461162331CDDE7504A93600233029346
:108B70004E4B9A6803925A6A0692DA6800921A6813
:108B800028331B7805920793039B019A013AD2B2CE
:108B90000192FF2A00D18FE0019A0699D2008A182B
:108BA0006146013108D06046242141430098644663
:108BB0004118086A844628E0117850788842E4D049
:108BC000182048435468013120189478C9B21170B4
:108BD0008C4201D100211170017844681D1C0129CB
:108BE00061D123316143009D69180E7D1D1C002E4B
:108BF00059D185688D60C568CD6005690D61406992
:108C0000C8610798002800D08E608868059D294FAC
:108C1000451B2D022D0ACE68BD4202D8AD194D600C
:108C20000AE0059D281A0002000A864202D9361A77
:108C30004E6001E00020486000208860C86001307C
:108C40000875023808622530061C66430099251C09
:108C50008E19591C27D05843009D71682818456803
:108C6000A94204D8691A4160251C33621BE01D1C0F
:108C7000049324206843009F38184768B94206D9F6
:108C8000006AC91B0495471C05D0051CF1E77F1A33
:108C90004760281C049D716024214D430099306277
:108CA0004D192C621D1C2B1C7AE7C046E0240020C5
:108CB00000100140FEFF7F002E4C039AA3609342F8
:108CC00002D1029A002A4FD05A1C4BD0242253437F
:108CD000E26829482949D3180D585E682368277926
:108CE000EA1A1202120A033200920190002F1FD1D9
:108CF0008020D1274002BF00C851403FC851C02248
:108D000080271F48BF0252008750076001272F208D
:108D10000F600138C046C046C046C046C046C04687
:108D2000C046C046C046C046C046C046F1D12771C5
:108D3000009AB24200D2321CD318A8221B021B0A8E
:108D4000D2008B50019A8958491B0902090A5D1B00
:108D50002D0203312D0AA94206D98022094B920225
:108D60005A6001E0FFF79EFD0022024B28331A7083
:108D70000BB0F0BDE024002004050000001001400D
:108D800000E100E0FCE100E0F8B51E1C051C0F1C32
:108D9000141C0720B3074BD1002E49D0FFF782FDEA
:108DA000244A069B24211361131C29331F704F434F
:108DB000F1190F1C331CD660994204D000201870A2
:108DC00018752433F8E70320531CD8771823516211
:108DD00018310E1C63430020796038707870BC70C5
:108DE0000837C918B742F6D101238024C021C5260F
:108DF000FF275B429360104B640349001075507568
:108E0000B6005C509959B9433F3F39439951A1216C
:108E10001C600A4CC9006550C425AD005E59084964
:108E20003140C026360231435951064BE358136096
:108E3000F8BDC046E024002000E100E00010014041
:108E4000FF00FFFF04050000114BF0B5DC68061CB5
:108E50000820002C1AD00138002A17D0002E15D077
:108E6000002529331F78BD420FDA201C2434231C2F
:108E7000243B1B78002B06D10124417004708261D1
:108E80003560181C02E00135EDE70420F0BDC04656
:108E9000E0240020F0B51F4C061CE56885B00820D2
:108EA000002D34D0231C29331B7801389E422ED24A
:108EB00004292CD924237343EB181D780130012D8C
:108EC00025D15B780027012B00D10F1C01920D1CCE
:108ED000FFF7B5FC646AC0002418201C03A9FFF743
:108EE00099FC031C0420002B11D001220A491A709E
:108EF0000A4A5E608A5800209A60019ADD605A61D1
:108F000080221F61039B52036370054B5A6005B0BA
:108F1000F0BDC046E0240020001001400405000020
:108F2000FCE100E073B5154E0823F268002A22D058
:108F3000331C29331978072388421CD21D3343433D
:108F40009A5C0823012A16D1051CFFF778FC746A85
:108F5000C0002418201C01A9FFF75CFC0423002892
:108F600009D08022023B0370019B45606370044B73
:108F700052035A600023181C76BDC046E02400202E
:108F8000FCE100E013B50F4C0823E268002A16D07C
:108F9000FFF755FC646AC0002418201C01A9FFF7E4
:108FA00039FC042300280AD08022013B0370043BD3
:108FB0004360019B52036370034B5A600023181CEB
:108FC00016BDC046E0240020FCE100E0024A034B4D
:108FD000D3580360002070470010014004050000D2
:108FE000401A0002000A106000207047031CA022F3
:108FF0000321C133FF33D2059B00995001238340E5
:10900000181CA123DB00D050704701238340A0220D
:10901000181C024BD205D0507047C0460C0500000A
:1090200001238340A022181CA123D205DB00D050CD
:109030007047A02310B50124064ADB059A58211C6D
:10904000C2408140224202D1A122D20000E0024A65
:10905000995010BD040500000C05000008B5122051
:10906000FFF7C4FF1320FFF7C1FF1420FFF7BEFF77
:10907000002008BD10B50021041C00F081F8044B4D
:109080001868C36B002B00D09847201C00F088F9AB
:10909000C093010070B50D4E0D4D0024AD1BAD10F9
:1090A00005D0A300F35801349847A542F9D100F048
:1090B00079F9084E084D0024AD1BAD1005D0A30072
:1090C000F35801349847A542F9D170BD34240020EB
:1090D00034240020342400203C24002070B5830771
:1090E0003FD0541E002A3BD0CEB2031C032503E020
:1090F000621E002C34D0141C01335A1E16702B42F1
:10910000F6D1032C24D9FF250D402A0215432A0449
:1091100015430F2C11D9261C103E36090136360195
:109120001A1C9B19156055609560D56010329342EA
:10913000F8D10F221440032C0AD9261FB608013695
:10914000B6001A1C9B1920C29342FCD10322144082
:10915000002C05D0C9B21C1919700133A342FBD1F0
:1091600070BD141C031CCCE708B5034B002B02D0C8
:10917000024800F089F808BD000000009992010043
:10918000F0B556465F464D464446F0B40E1C3C4B87
:1091900087B01B68019003934933FF330493A422E3
:1091A000039B52009F58002F4CD0049B98460023ED
:1091B0009B46C4235B009C46BC4463460293C62383
:1091C0005B009A467C68BA44A5007D19013C08D52D
:1091D00026E06B1DFF331B68B34204D0043D013C05
:1091E0001ED3002EF5D17B686A68013BA3423AD0BA
:1091F0005B466B60002AF1D07B6802999946012397
:10920000A34009680591194223D190477B684B45DB
:10921000C5D143461B68BB42C1D1043D013CE0D2ED
:10922000184B002B0ED07B68002B23D13B68002B02
:1092300024D04246381C136000E000BF43461F683C
:10924000002FB6D107B03CBC90469946A246AB462B
:10925000F0BD51460968194207D12B1C84331968A7
:1092600001989047D2E77C60C4E72B1C84331868D0
:109270009047CBE73B68B8461F1CE1E70023FAE7BD
:10928000C09301000000000008B5011C002200206E
:10929000002300F01BF808BD38B5094B094CE41A4F
:1092A000A41009D0084AA518AD00ED182B68013CA0
:1092B0009847043D002CF9D100F07AF838BDC0463B
:1092C0003C24002040240020FFFFFF3FF8B5444627
:1092D0005F4656464D469B462F4BF0B41C68A42370
:1092E0005B00051CE0580E1C904600284BD04368DC
:1092F0001F2B0DDC5C1C002D21D102339B00446030
:109300001E5000203CBC90469946A246AB46F8BD94
:10931000224B002B3CD0C820400000E000BF0028BA
:1093200036D0A42200235200A15843600160A0500F
:1093300040328350043283500124002DDDD09A0046
:1093400091468144424688214F467A50C4225200B9
:109350009046804442468739994012688A460A43BB
:109360009446424661461160842249465F46520057
:109370008F50022DC1D1021C55468D32FF3211682B
:109380000D431560B9E7201C4D30FF30E050AEE7CB
:1093900001204042B6E7C046C09301000000000033
:1093A000FEE7C046F8B5C046F8BC08BC9E4670470C
:1093B000F8B5C046F8BC08BC9E46704743000000A4
:0893C00008200020000000005D
:0893C80058EDFF7F01000000D9
:1093D000000000000024F40000000000F42200203F
:1093E0005C230020C42300200000000000000000D7
:1093F000000000000000000000000000000000006D
:10940000000000000000000000000000BC9301000C
:10941000000000000000000000000000000000004C
:10942000000000000000000000000000000000003C
:10943000000000000000000000000000000000002C
:10944000000000000000000000000000000000001C
:10945000000000000000000000000000000000000C
:1094600000000000000000000000000000000000FC
:1094700000000000000000000000000000000000EC
:1094800001000000000000000E33CDAB34126DE689
:10949000ECDE05000B0000000000000000000000F2
:1094A00000000000000000000000000000000000BC
:1094B00000000000000000000000000000000000AC
:1094C000000000000000000000000000000000009C
:1094D000000000000000000000000000000000008C
:109800000820002069910100E9800100C180010069
:049810000000000054
:0400000310008199CF
:00000001FF
