:020000021000EC
:108000000040002099810100D9810100DB8101003D
:108010000000000000000000000000000000000060
:10802000000000000000000000000000DD810100F1
:108030000000000000000000DF810100E18101007C
:10804000E5810100E7810100E9810100EB81010088
:10805000ED81010000000000A1830100F181010019
:10806000F3810100B5890100F7810100F981010068
:10807000FB810100FD810100FF81010001820100FF
:10808000038201006D8C01000782010000000000E6
:10809000098D01000B820100458B01000F82010058
:1080A00011820100138201000000000000000000A6
:1080B00000000000000000000000000000000000C0
:1080C00010B5064C2378002B07D1054B002B02D0AE
:1080D000044800E000BF0123237010BD5424002099
:1080E00000000000ACA3010008B5084B002B03D032
:1080F0000748084900E000BF07480368002B00D18B
:1081000008BD064B002BFBD09847F9E700000000A4
:10811000ACA30100582400205024002000000000DF
:10812000164B002B00D1144B9D46402292029A1A06
:10813000924600218B460F461348144A121A01F04A
:1081400081FF0F4B002B00D098470E4B002B00D027
:1081500098470020002104000D000D48002802D09F
:108160000C4802F045F801F049FF2000290000F01A
:1081700039FC01F033FFC046000008000040002039
:10818000000000000000000054240020972500207B
:10819000F1A1010001A201000948026803210A437C
:1081A00002600849084A094B9B1A05DD002408595A
:1081B000105104349C42FADB0548804705480047CB
:1081C00024050040B8A30100002000205024002016
:1081D0002582010021810100FEE7FEE7FEE7FEE7C0
:1081E000FEE7FEE7FEE7FEE7FEE7FEE7FEE7FEE767
:1081F000FEE7FEE7FEE7FEE7FEE7FEE7FEE7FEE757
:10820000FEE7FEE7FEE7FEE7FEE7FEE7FEE7FEE746
:10821000FEE7FEE7014A024B1A6070470024F400B3
:10822000042000201B4A10B51378111C012B19D112
:10823000194B1B681B0715D1184BE0241A68F02353
:10824000101C184022420BD1154A12681A4209D15B
:10825000144A154B1A608022144B12021A6001E076
:108260003028F1D00B68DBB2012B12D10A4A126818
:1082700012070ED1F021094A12680A40402A08D19B
:10828000074A12680A4204D1C1228021D200C905DE
:108290008B5010BDE00F00F0E40F00F0E80F00F08D
:1082A000EC0F00F0DFFF07C004050040186C004031
:1082B000BFF34F8F024A034BDA60BFF34F8FFEE7E5
:1082C0000400FA0500ED00E00D4B30B51A681423E8
:1082D000584384580022012393401C420BD0A02114
:1082E0009300C9055B18E021C9005D580548284086
:1082F0005850585858500132202AECD130BDC04651
:1083000070240020FFFFFCFF48DF704738B50024D1
:10831000114B196018715C719C6014234343081C55
:108320001A1C211C01F08EFE0121C223C1200B4A20
:1083300049429B00D1500A4A893B4131FF3BD15011
:1083400080001558074B2B408025ED032B4313501D
:10835000201C116038BDC046702400200060004021
:1083600000E100E0FFFF00FF82B00190019B002BC5
:1083700012D0019B0948013B01930138C046C04619
:10838000C046C046C046C046C046C046C046C046BD
:10839000C046C046F1D1E9E702B07047E7030000EC
:1083A000A223A022DB00D205F0B5D5580023BE22BF
:1083B0001E1C454985B052008B5001930024434A4E
:1083C0005779BC423CD20121A140936810680B420E
:1083D00033D014236343C3180020019A19689143D2
:1083E000DA680E436A4002969143012282401142AC
:1083F0000FD0A0268200F6059219E026F6009759C4
:10840000BC466646324F3740E026F60097519759F2
:10841000975101302028E8D1019A029E0A43019227
:1084200096439A685868AA43171C284007430F428E
:1084300003D008401B69114098470134E4B2BEE7FD
:10844000A223A021DB00C905CB586B4033405D401F
:10845000002BB3D1916812680391D9B2B94231D2DD
:10846000012199400398084229D0116801980140E0
:108470008C4624D00020012181400C1C6146214201
:108480001AD0D168214203D12143D160802102E07A
:10849000A143D160C021A02489020291E40581009A
:1084A0000919E024E4000D592E1C094D35400D51E9
:1084B0000D59029E2E430E5101302028DBD101338D
:1084C0001432CAE705B0F0BD0060004070240020FF
:1084D000FFFFFCFF08B5031C0720002904D08A0712
:1084E00002D1181CFFF712FF08BDF8B50F4E082483
:1084F0003768002F18D0013C002B15D034797579DE
:10850000A4460424AC450FD910346C433C190F1C0D
:108510001743236127606160A2606B1C0570281CF3
:1085200073710024FFF7D0FE201CF8BD70240020DA
:10853000234BF0B51968082200293FD05C79013A35
:1085400084423BD900241F4D7632FF32AC50A22228
:10855000A024D200E405A4589A68002A04D18027F8
:10856000C1263F06B600AF51012585402A439A60D7
:1085700014235843002308180568C36001229A4059
:10858000154217D0144204D1C1680A43C260802248
:1085900000E0C022A02192029446C9059A00521818
:1085A000E021C9005758084E374057506746565883
:1085B000374357500133202BE0D10022101CF0BD6F
:1085C0007024002000600040FFFFFCFF38B50E4D16
:1085D00008232A68002A14D06A79013B824210D904
:1085E000041CFFF771FE0120A040AB688343AB6021
:1085F00006D18020C222054900069200885000E082
:108600000023181C38BDC0467024002000600040C4
:108610000B4A30B514680823002C0ED05279013B68
:1086200082420AD9A223A022DB00D205D558142207
:10863000504303592B400B600023181C30BDC0462B
:1086400070240020234B244A1A601A79012A02D18F
:108650005A79002A05D01A79002A0BD15A79012AB1
:1086600008D1A02180201D4AC002C9058850802061
:1086700000031FE01A79012A0CD15A79012A09D185
:10868000A02280201549C002D20550508020043914
:1086900000030FE01A79002A0DD15A79002A0AD175
:1086A000A0228020A121C002C900D2055050802004
:1086B0000A49000350508020A122A021D200C90500
:1086C000400388505979FF22002900D11A715A714C
:1086D0007047C046082000200000FA430C05000047
:1086E00008B5FFF7E5FDA023E9210322DB05C9005A
:1086F00010B55A50164964205A5004315A5048391E
:108700005A5014495A50013204315A5012495A50A1
:1087100004315A5011495A50FFF726FE10490720DC
:108720000C31FFF7F3FD002801D0FFF7C1FDC02198
:108730000C4C4904201C0A1C0B4BFFF7D6FE0028EA
:10874000F3D12078FFF7F4FE0028EED110BDC0462B
:108750004C070000140700005C0700000C05000037
:108760007024002096250020D5880100F8B5012549
:108770002B1C8B40191CA023374EDB05041C995180
:1087800014200138C046C046C046C046C046C04658
:10879000C046C046C046C046C046C046F1D1A12032
:1087A000C00019508020400398510C200138C04669
:1087B000C046C046C046C046C046C046C046C04689
:1087C000C046C046C046F1D1142099510138C04678
:1087D000C046C046C046C046C046C046C046C04669
:1087E000C046C046C046F1D19540A222D2009A5858
:1087F0002A42FAD0194B00221F1C9A61A223A02200
:10880000DB00D205D3582B42F8D1154E1549B0687C
:1088100000F000FE0028F1D1B568B86900F0FAFF59
:10882000011C281C00F0C4FE01F0D6FA0E4A0F4BC2
:1088300001F038F801F024FB0D49051C00F0D6FDCD
:10884000002807D02068291C00F0E4FD002800D093
:1088500025600120F8BDC0460C050000F024002072
:1088600008200020000048439CC420B07268913F5B
:108870000000C84313B5154C2078FFF7A7FEA020D1
:10888000A2220121C005D20083588258DB0D120EAE
:108890000B400A400E490191002B12D0002A10D043
:1088A0000521062201A8FFF761FFA020A2220121D5
:1088B000C005D20083588258DB0D120E0B400A40CF
:1088C000EAE72078FFF734FE019816BD96250020D0
:1088D0000000C84370B580242404051C0E1C2142EE
:1088E0000BD0A223A022DB00D205D358DB0104D495
:1088F0000122194B5A71FFF7A5FE25420CD0A22385
:10890000A022DB00D205D358DB0105D40123124C91
:108910002371FFF7AFFF20608024640426420BD050
:10892000A223A022DB00D205D3581B02DB0F03D108
:10893000094A5371FFF786FE25420CD0A223A022DC
:10894000DB00D205D3581B02DB0F04D1024C23718C
:10895000FFF790FF206070BD0820002000220F4B21
:108960000F49A2205A500121C000D9601A5008387E
:108970001A50FA200B4A400098500B4A0B4890605E
:108980008020C1228002920098500220053AFF3ACE
:1089900098500748026019607047C0460090004038
:1089A0000405000044050000082000200000FA41F2
:1089B00000E100E0084B9A6C002A0BD0C122074965
:1089C00092008A58920305D500229A64044A93695A
:1089D000013393617047C046FC9000400090004016
:1089E000F02400200B4908B50E201C31482200233A
:1089F00000F06CF8002801D0FFF75AFCFFF7AEFF3B
:108A0000FFF771FEFA208000FFF7AEFCFFF77CFC59
:108A1000FCE7C046F02400202EDF704751DF70478E
:108A200010DF704711DF704761DF704708B5081C21
:108A3000111C00E000BF08BDF0B5234E85B03378AF
:108A4000002B3ED07568B4686B425D4163425C4167
:108A5000EDB2E4B2002D32D103A8FFF7DFFF052805
:108A60000AD0002804D0291C2A1CFFF739FE04E094
:108A700003987368984700E00125002C1CD1B38946
:108A800003A90B8033690124181C0193FFF7CCFF65
:108A9000071E052F0BD0002805D000210A1CFFF768
:108AA0001FFE002403E00198B36898473C1C002D8A
:108AB000D0D0002CCED004E0002D02D1CAE7002C8B
:108AC000DDD005B0F0BDC0465425002038B5051CEA
:108AD0000720002910D08C070ED1084C281C2161DA
:108AE0000749A2816361FFF79BFF002804D101239E
:108AF00016302370FFF790FF38BDC0465425002084
:108B00002D8A010008B5FFF78DFF031C5A1E934103
:108B1000014ADBB2137008BD542500200E23002843
:108B200002D0024B98600023181C70475425002087
:108B30000E23002802D0024B58600023181C7047F7
:108B40005425002008B5074B5B69002B07D09847D8
:108B5000002806D000210A1CFFF7C2FD01E0FFF744
:108B60006BFF08BD5425002010B54378827801338F
:108B70009A1A041C501E824152421340227800204F
:108B8000934205D00B601823607843436068C01897
:108B900010BD164B02205968C905C90D24D01039E3
:108BA000CBB25AB2002A0BDA0F221A40083AC2405E
:108BB00082400F49521803210B4052688B4007E056
:108BC00092080C4BC0329200D25803230B40DB00BA
:108BD000DA40D3B29B09DBB20020012B04D0033B67
:108BE0005A425A410230801A7047C04600ED00E0F8
:108BF00018ED00E000E100E08022194B9202DA67F4
:108C0000D2218022174B520289005A5040395A50C3
:108C100001222F215A60081C0138C046C046C046B8
:108C2000C046C046C046C046C046C046C046C04614
:108C3000C046F1D19A6000220B4B081C1A60013823
:108C4000C046C046C046C046C046C046C046C046F4
:108C5000C046C046C046C046F1D11A717047C046F2
:108C600004E100E0001001406C250020F8B500256B
:108C7000204B214C5D649D64DD641D655D609D60DD
:108C8000A7687B1C34D01D4B1D4AD6582368F61AA2
:108C90003602360A24235F43E368DB195A6896429A
:108CA00014D3B61AAD1822691F6A002A09D0986930
:108CB000D9699047002807D000210A1CFFF710FD52
:108CC00002E09A69D86990477B1CE3D1227D637DDD
:108CD000934205D10133DBB2022B00D1002363752F
:108CE0008022637D52039B00E418064BA5615A6005
:108CF000F8BDC046FC1001406C25002004050000B2
:108D000000100140FCE100E0F0B5BD4B8BB01A68EB
:108D1000597D03921A7D914211D00132D2B2022ABA
:108D200000D100221A751A7D92009A189769039A49
:108D3000BA181202120A1A600122059201E00027F5
:108D400005979A6806925A1CD27F01925A6A099234
:108D5000DA6800921A6828331B780892019A049303
:108D6000069B0292029A013AD2B20292FF2A68D07E
:108D7000029AD500099A551929786A788A42F1D061
:108D800018224A43AC7801316868C9B2641A821863
:108D9000601E8441107864422140022803D01A1CCE
:108DA00003284CD141E02420526850439446009A55
:108DB0008018027D0792079C1A1C002C3FD01E1CB5
:108DC0001C1C721C08D0664508D024227243009CEB
:108DD0001219341C166AF4E71A1C23E01A1CB44258
:108DE0000DD124225343009A9B181A6A531C06D1B2
:108DF0000126844B9E60079B0493002308934368DD
:108E0000066A9C4624235C43009BE4182662741C7B
:108E100008D024237343009C1B195E686446B44643
:108E200064445C600023037509E0531C07D02423CD
:108E30005A43009BD21800231375126AF5E7131CDE
:108E40009BE76F4A6846111C007C2831087008991E
:108E5000936011600599002909D1069A9B1A5A1E40
:108E60009341DBB2029301235B429C462AE0D56822
:108E700001225242944600205A1C1FD024225A43F9
:108E8000AA1851688F4205D25D48C91B83605160A2
:108E9000012316E07F1A40180021146951601175F2
:108EA000166A8C4208D00399D46041180902090A55
:108EB000916061469C461162331CDDE7504A936025
:108EC000023302934E4B9A6803925A6A0692DA680A
:108ED00000921A6828331B7805920793039B019A26
:108EE000013AD2B20192FF2A00D18FE0019A06998D
:108EF000D2008A186146013108D0604624214143DE
:108F0000009864464118086A844628E01178507831
:108F10008842E4D0182048435468013120189478DE
:108F2000C9B211708C4201D10021117001784468DE
:108F30001D1C012961D123316143009D69180E7DFB
:108F40001D1C002E59D185688D60C568CD600569EE
:108F50000D614069C8610798002800D08E6088685C
:108F6000059D294F451B2D022D0ACE68BD4202D812
:108F7000AD194D600AE0059D281A0002000A8642DC
:108F800002D9361A4E6001E0002048600020886057
:108F9000C86001300875023808622530061C664337
:108FA0000099251C8E19591C27D05843009D7168C3
:108FB00028184568A94204D8691A4160251C336203
:108FC0001BE01D1C049324206843009F3818476849
:108FD000B94206D9006AC91B0495471C05D0051C77
:108FE000F1E77F1A4760281C049D716024214D43DE
:108FF000009930624D192C621D1C2B1C7AE7C0466B
:109000006C25002000100140FEFF7F002E4C039ACB
:10901000A360934202D1029A002A4FD05A1C4BD02F
:1090200024225343E26829482949D3180D585E6821
:1090300023682779EA1A1202120A03320092019079
:10904000002F1FD18020D1274002BF00C851403FD0
:10905000C851C02280271F48BF02520087500760B6
:1090600001272F200F600138C046C046C046C046C9
:10907000C046C046C046C046C046C046C046C046C0
:10908000F1D12771009AB24200D2321CD318A82223
:109090001B021B0AD2008B50019A8958491B0902F6
:1090A000090A5D1B2D0203312D0AA94206D980222F
:1090B000094B92025A6001E0FFF79EFD0022024B2D
:1090C00028331A700BB0F0BD6C2500200405000099
:1090D0000010014000E100E0FCE100E0F8B51E1CDA
:1090E000051C0F1C141C0720B3074BD1002E49D0C0
:1090F000FFF782FD244A069B24211361131C2933A8
:109100001F704F43F1190F1C331CD660994204D0D5
:109110000020187018752433F8E70320531CD87703
:109120001823516218310E1C634300207960387097
:109130007870BC700837C918B742F6D10123802473
:10914000C021C526FF275B429360104B6403490092
:1091500010755075B6005C509959B9433F3F39437B
:109160009951A1211C600A4CC9006550C425AD006D
:109170005E5908493140C026360231435951064BE9
:10918000E3581360F8BDC0466C25002000E100E004
:1091900000100140FF00FFFF04050000114BF0B577
:1091A000DC68061C0820002C1AD00138002A17D0D1
:1091B000002E15D0002529331F78BD420FDA201C60
:1091C0002434231C243B1B78002B06D1012441703E
:1091D000047082613560181C02E00135EDE704205F
:1091E000F0BDC0466C250020F0B51F4C061CE5689C
:1091F00085B00820002D34D0231C29331B7801387A
:109200009E422ED204292CD924237343EB181D78B7
:109210000130012D25D15B780027012B00D10F1CD7
:1092200001920D1CFFF7B5FC646AC0002418201CD5
:1092300003A9FFF799FC031C0420002B11D0012285
:109240000A491A700A4A5E608A5800209A60019A98
:10925000DD605A6180221F61039B52036370054BDE
:109260005A6005B0F0BDC0466C25002000100140DA
:1092700004050000FCE100E073B5154E0823F26818
:10928000002A22D0331C29331978072388421CD2A4
:109290001D3343439A5C0823012A16D1051CFFF7AE
:1092A00078FC746AC0002418201C01A9FFF75CFC3C
:1092B0000423002809D08022023B0370019B4560F3
:1092C0006370044B52035A600023181C76BDC046DD
:1092D0006C250020FCE100E013B50F4C0823E26888
:1092E000002A16D0FFF755FC646AC0002418201C21
:1092F00001A9FFF739FC042300280AD08022013B92
:109300000370043B4360019B52036370034B5A603C
:109310000023181C16BDC0466C250020FCE100E0AF
:10932000024A034BD35803600020704700100140ED
:1093300004050000401A0002000A10600020704777
:10934000031CA0220321C133FF33D2059B00995097
:1093500001238340181CA123DB00D0507047012358
:109360008340A022181C024BD205D0507047C04643
:109370000C05000001238340A022181CA123D20564
:10938000DB00D0507047A02310B50124064ADB054E
:109390009A58211CC2408140224202D1A122D2000F
:1093A00000E0024A995010BD040500000C050000C1
:1093B00008B51220FFF7C4FF1320FFF7C1FF1420E8
:1093C000FFF7BEFF002008BD8446081C6146FFE78A
:1093D0001FB500F0A7F8002801D40021C8421FBD26
:1093E00010B500F02BF84042013010BD10B500F070
:1093F00099F8002801DB002010BD012010BDC046F7
:1094000010B500F08FF8002801DD002010BD01200C
:1094100010BDC04610B500F03BF8002801DC00206C
:1094200010BD012010BDC04610B500F031F8002875
:1094300001DA002010BD012010BDC046430270B506
:1094400042004C005D0AC30F4802120E460A240E69
:10945000C90FFF2A05D0FF2C08D00120A2420BD053
:1094600070BD0120002DFBD1FF2CF6D10120002E74
:10947000F6D10120A242F3D1B542F1D18B4205D001
:10948000002AEDD1281C431E9841E9E70020E7E7B8
:10949000F0B543024D024A0044005E0A240EC30F99
:1094A0006D0A120EC90FFF2C0DD0FF2A31D0002CEF
:1094B0000DD177427741002A23D1002D21D1002000
:1094C000002F0BD107E0002E28D1FF2A21D0002A3F
:1094D00005D08B4207D0584201231843F0BD002D20
:1094E000F9D08B42F7D19442F5DC04DBAE42F2D8DE
:1094F0000020AE42F2D25842434101205B42184361
:10950000ECE7002FE5D048424141012049420843A1
:10951000E4E7002D02D1002CCBD0DAE70220404254
:10952000DCE7C0464302F0B542004C005E0AC30FC0
:109530004802120E450A240EC90FFF2A0FD0FF2C35
:109540001AD0002A10D177427741002C29D0002F61
:1095500017D0484241410120494208430BE0022014
:10956000002E08D1FF2C07D0002C0AD1002D08D1E5
:10957000584201231843F0BD0220002DFBD1002AE0
:10958000E1D08B42F4D1A242F2DC04DBAE42EFD850
:109590000020AE42EFD25842434101205B421843C3
:1095A000E9E7002DD3D10020002FE4D1E0E7C04649
:1095B000F0B55F4656464D464446F0B44502460077
:1095C000C40F83B00F1C6D0A360EA34645D0FF2E84
:1095D00025D080231B041D4300239A46ED007F3EC7
:1095E00001937B025B0A98467800FB0F000E9946B8
:1095F00040D0FF2838D0802342461B041343DB00B1
:10960000984600237F384A46019F30186240411C2B
:109610001F430F2F69D87D4EBF00F659B746002D66
:1096200045D108230193063B9A46DAE79346534611
:10963000022B2FD15B46012400251C40FF236D0225
:10964000DB056D0AE4071D432543281C03B03CBC21
:1096500090469946A246AB46F0BD002D2CD104237E
:109660000193033B9A46BCE743465A4253410322C7
:10967000D31AC8E742460123002AC4D0404600F06E
:109680008FFC4246431F9A4076235B42181A90464D
:109690000023B8E7032B00D1ADE0012B00D08CE014
:1096A0005B4654461C40E4B200230025C7E70C2368
:1096B0000193093B9A4694E7281C00F071FC76263A
:1096C000431F9D4000237642361A01939A4688E74D
:1096D00080250024ED03FF23B1E74546CB469A469B
:1096E000A5E7454693469A46A1E743462C041B0C42
:1096F0009C46230C444626041C1C360C2F0C744339
:10970000351C66467D4373437743EB18260C9E1940
:10971000B54203D980235B029C466744240433048A
:10972000240C1B199D016C1EA5419B0E360C2B436E
:10973000BD19AD011D432B0104D5012368081D404F
:109740000543081C031C7F33002B2CDD690704D064
:109750000F212940042900D00435290103D52C4BC1
:109760001D40031C8033FE2B17DD0124FF23144012
:10977000002564E78020C003054209D04346034228
:1097800006D1454605436D026D0A4C46FF2356E758
:1097900005436D026D0AFF2351E70124AD016D0AF7
:1097A000DBB214404BE77E235B421B1A1B2B07DD09
:1097B000012400231440002541E7081C5A46C1E754
:1097C0009E30291C8540D940681E85410D436B079A
:1097D00004D00F232B40042B00D004356B0104D59B
:1097E000012401231440002529E70124AD016D0A5D
:1097F0001440002323E78023DB031D4301245B4641
:109800006D0223401C1C6D0AFF2318E724A30100EE
:10981000FFFFFFF710B5041E35D000F0C1FB9E21FD
:10982000091A962909DC082830DD021C231C083A95
:1098300093405B025B0AC8B220E099290CDD052247
:10984000231C121AD3401A1C031C1B339C40231CDC
:109850005C1EA34113431C1C052801DD431F9C40D3
:109860000F4B2340620704D00F221440042C00D079
:1098700004335A010ED49B015B0AC8B25B025B0A37
:10988000C005184310BD00200023F7E763025B0A00
:10989000C8B2F3E79F21024A091A1340EBE7C0461A
:1098A000FFFFFFFBF0B55F4656464D464446F0B419
:1098B000051C061C080387B099464F00030BCC0F0C
:1098C00092469B467F0D019467D06C4B9F4236D0E9
:1098D00080205B4640031843C0006B0F1843684B61
:1098E00083469C4600239846EE00674400934B460F
:1098F00049461D03C90F5B0052462D0B5B0D89467F
:1099000000D16EE05D498B4264D080205C49400309
:109910008C4600210543ED00500F0543D2006344FF
:109920004846FF187B1C9A46009B604002900B4300
:109930000F2B00D9ACE053489B00C3589F465B46B1
:109940001D4300D082E00823009300239B4602338E
:1099500000269846CBE7029B01934346022B59D140
:10996000012400250026019B1C40444B00212D03AF
:109970000A0D12052D0B1543434A1B0515401D43C7
:109980006D00E4076D082543301C291C07B03CBC62
:1099900090469946A246AB46F0BD2B434ED05B465F
:1099A000002B00D185E1584600F0FAFA021C28236A
:1099B000291C9B1A161C5846D940083EB0400B1C67
:1099C000B54003439B462E1C0023304F0093BF1A23
:1099D00098468CE7514629432ED1002500220221CA
:1099E0009EE75146294323D0002D00D154E1281C85
:1099F00000F0D6FA031C28215046C91A1A1CC84088
:109A00005146083A914095400A1C05431F480021E1
:109A1000C31A85E7032B00D1C2E1012B00D06DE111
:109A20004446019B00251C40E4B2002300269DE72C
:109A300000250022012173E7032171E7042300932D
:109A400000239B4601330026984650E70C230093E1
:109A5000093B98464BE7802500242D030026074B41
:109A600084E74B46AB46161C0193884675E7029B7C
:109A7000AB46161C019388466FE7C046FF070000FF
:109A800001FCFFFF64A30100FFFF0F800DFCFFFF3F
:109A9000330C3604360C9C46331C140C1204120C86
:109AA0005343984663465343994663466343019341
:109AB000331C41466343090C4B445B18994505D957
:109AC000802040028146019949440191190C03917B
:109AD00041460904090C1B045B1804932B0C98469F
:109AE000331C2D04290C4B436046009343466546C6
:109AF00058435E43009B4D431B0C9946AE194E44A0
:109B00008446B54203D980235B029946CC44350C88
:109B10002B1C0398634484460593009B36041B0466
:109B20001B0CF3189C446046039058460504060C31
:109B3000280C84465043351C8146604665434443A7
:109B40004846000C8346724314195C44A24203D970
:109B50008022520293465D44220CAD184A461204FC
:109B6000120C24044046A41862464A4371434643FB
:109B700060460096464670438046100C84468844F2
:109B8000E044414505D9802149028C460099614451
:109B90000091019803998446614499429B415B423C
:109BA00099460598434684461204120C1B049B18E0
:109BB00063449C46AB4683429B4140460A19CC44D1
:109BC000A2428941E344CC45B6415C46000C804644
:109BD000494276425B426418334398448C4289413F
:109BE000AB459B4149425B4219430D1C009B4544D8
:109BF000EE187602E50D2E43B346049B56021E4333
:109C0000731E9E415B46D20D324366021643DB0152
:109C10000AD50123334076081E435B46DB071E430B
:109C20005B465B089B465746634BFB18002B5ADD8F
:109C3000720709D00F223240042A05D0321DB242E9
:109C4000B6417642B344161C5A46D20106D55A464E
:109C50005A4B1A4080239346DB00FB18584A934224
:109C600034DD0124029B00251C400026554B7DE677
:109C700080205B460003034208D0054206D105431D
:109C80002D032D0B4C46161C4E4B6FE65D460543CF
:109C90002D032D0B4B4B69E6504600F081F9031C58
:109CA0002033272B00DCA6E65546083885400022E5
:109CB000ACE6281C00F074F9021C2032272A00DCD4
:109CC00075E6083885400026AB467DE65A46F6081C
:109CD000520716435A4601245502029A5B052D0B82
:109CE0005B0D144042E6384DED1B382D0ADD012492
:109CF000029B00251C400026002337E6019B5746A7
:109D0000029391E71F2D25DC304B321C9C466744A3
:109D1000BE405B46BB40371CEA407E1EB741134342
:109D20003B431E1C5B46EB401D1C730709D00F23F1
:109D30003340042B05D0331DB342B6417642AD19F2
:109D40001E1C2B0220D50124029B00251C4000264E
:109D500001230BE65A461E4BDB1BDA40131C202D59
:109D60001CD01C4A94465A466744BA40171C3E43CE
:109D7000721E96411E4307230025334007D00F2350
:109D800000253340042BD6D16B076D022D0B012427
:109D9000F6081E43029B1C400023E7E50027E6E788
:109DA00080255B4601242D031D43019B2D03234089
:109DB0001C1C2D0B034BD9E5FF030000FFFFFFFE2A
:109DC000FE070000FF07000002FCFFFF1E0400006A
:109DD000E2FBFFFF3E0400004200120E511C38B5AA
:109DE000C9B243025D0AC40F012915DDE0218900D3
:109DF0008C466D071B0B62440021281C0D0D2D05A0
:109E00002B431C4D52052B40520813435B00E407C3
:109E10005B082343191C38BD002A15D1002D1FD023
:109E2000281C00F0BDF80A281DDC0B232A1C1B1A75
:109E3000DA40131C021C153295400F4A1B03121AFC
:109E400052051B0B520DD7E7002D06D080221B0BAD
:109E5000120313436D07094ACEE7084A0023CBE7F4
:109E600000220023C8E7031C0B3B9D402B1C002550
:109E7000E3E7C046FFFF0F8089030000FF070000F3
:109E800070B50B034D00440F6D0D5B0A23436C1C32
:109E90006405C90FC200640D012C2ADD3B4C2C194E
:109EA000FE2C1ADC002C35DD8001451EA841DB00AC
:109EB0000343520F13435A0704D00F221A40042AB7
:109EC00000D004338022D2041A4027D00134FF2C62
:109ED00003D09B015B0AE4B201E0FF2400235B0294
:109EE000E4055B0A23435B00C9075B080B43181CAE
:109EF00070BD002D06D113430ED100245B025B0A16
:109F0000E4B2ECE71A43E8D08020DB00800403438E
:109F1000FF24D0E717340CDA05230024DB08FF2CDC
:109F2000ECD1002B2DD08022D20313435B025B0ABD
:109F3000D5E78024164824042343401B1F280DDC4A
:109F4000144CA4466544AB401C1C131CAB405D1E66
:109F5000AB41C240234313430024ACE71E1C0E4C0C
:109F6000641BE640341C20280DD00C488446654410
:109F7000AB401D1C2A43531E9A41131C234300244B
:109F800099E70023ABE70025F4E7C04680FCFFFF1C
:109F90009E03000082FCFFFF7E030000A2FCFFFF87
:109FA0001C2101231B04984201D3000C10391B0A09
:109FB000984201D3000A08391B09984201D30009CD
:109FC000043902A2105C40187047C0460403020224
:109FD00001010101000000000000000010B5002197
:109FE000041C00F081F8044B1868C36B002B00D0F0
:109FF0009847201C00F088F9A8A3010070B50D4E09
:10A000000D4D0024AD1BAD1005D0A300F358013455
:10A010009847A542F9D100F079F9084E084D00247F
:10A02000AD1BAD1005D0A300F35801349847A542ED
:10A03000F9D170BD44240020442400204424002091
:10A040004C24002070B583073FD0541E002A3BD01B
:10A05000CEB2031C032503E0621E002C34D0141C76
:10A0600001335A1E16702B42F6D1032C24D9FF253A
:10A070000D402A0215432A0415430F2C11D9261C22
:10A08000103E3609013636011A1C9B1915605560C1
:10A090009560D56010329342F8D10F221440032C02
:10A0A0000AD9261FB6080136B6001A1C9B1920C211
:10A0B0009342FCD103221440002C05D0C9B21C19D4
:10A0C00019700133A342FBD170BD141C031CCCE7F3
:10A0D00008B5034B002B02D0024800F089F808BDF8
:10A0E0000000000001A20100F0B556465F464D4653
:10A0F0004446F0B40E1C3C4B87B01B6801900393A0
:10A100004933FF330493A422039B52009F58002F2E
:10A110004CD0049B984600239B46C4235B009C467E
:10A12000BC4463460293C6235B009A467C68BA44EB
:10A13000A5007D19013C08D526E06B1DFF331B6887
:10A14000B34204D0043D013C1ED3002EF5D17B6800
:10A150006A68013BA3423AD05B466B60002AF1D0AB
:10A160007B68029999460123A34009680591194229
:10A1700023D190477B684B45C5D143461B68BB4202
:10A18000C1D1043D013CE0D2184B002B0ED07B68BE
:10A19000002B23D13B68002B24D04246381C13608F
:10A1A00000E000BF43461F68002FB6D107B03CBC9B
:10A1B00090469946A246AB46F0BD51460968194201
:10A1C00007D12B1C8433196801989047D2E77C6033
:10A1D000C4E72B1C843318689047CBE73B68B8462C
:10A1E0001F1CE1E70023FAE7A8A30100000000001C
:10A1F00008B5011C00220020002300F01BF808BD58
:10A2000038B5094B094CE41AA41009D0084AA5181E
:10A21000AD00ED182B68013C9847043D002CF9D1A6
:10A2200000F07AF838BDC0464C24002050240020AD
:10A23000FFFFFF3FF8B544465F4656464D469B46F6
:10A240002F4BF0B41C68A4235B00051CE0580E1CC7
:10A25000904600284BD043681F2B0DDC5C1C002D62
:10A2600021D102339B0044601E5000203CBC90462C
:10A270009946A246AB46F8BD224B002B3CD0C820E5
:10A28000400000E000BF002836D0A4220023520086
:10A29000A15843600160A050403283500432835083
:10A2A0000124002DDDD09A00914681444246882148
:10A2B0004F467A50C4225200904680444246873925
:10A2C000994012688A460A439446424661461160A4
:10A2D000842249465F4652008F50022DC1D1021C94
:10A2E00055468D32FF3211680D431560B9E7201CC9
:10A2F0004D30FF30E050AEE701204042B6E7C046A7
:10A30000A8A3010000000000FEE7C046F8B5C04663
:10A31000F8BC08BC9E467047F8B5C046F8BC08BCFF
:10A320009E467047EA960100E2960100E29601001F
:10A33000DA9601002C9601002C960100D0960100BF
:10A34000DA9601002C960100D09601002C960100AF
:10A35000DA9601002E9601002E9601002E9601003D
:10A3600074970100909A01006E9A01006E9A0100A4
:10A37000629A01005699010056990100569A01000F
:10A38000629A010056990100569A010056990100FF
:10A39000629A01005A9901005A9901005A990100E4
:10A3A000709C010043000000182000200000000005
:08A3B00070DDFF7F01000000D9
:10A3B800000000000024F4000000FA43FFFF000042
:10A3C8000000803F0000000000000000042300207F
:10A3D8006C230020D42300200000000000000000AF
:10A3E8000000000000000000000000000000000065
:10A3F800000000000000000000000000A4A301000D
:10A408000000000000000000000000000000000044
:10A418000000000000000000000000000000000034
:10A428000000000000000000000000000000000024
:10A438000000000000000000000000000000000014
:10A448000000000000000000000000000000000004
:10A4580000000000000000000000000000000000F4
:10A4680000000000000000000000000000000000E4
:10A4780001000000000000000E33CDAB34126DE681
:10A48800ECDE05000B0000000000000000000000EA
:10A4980000000000000000000000000000000000B4
:10A4A80000000000000000000000000000000000A4
:10A4B8000000000000000000000000000000000094
:10A4C8000000000000000000000000000000000084
:10A7F80018200020D1A00100E9800100C1800100DB
:04A80800000000004C
:0400000310008199CF
:00000001FF
